:10000000020135300003EF80FA30D004D29B800229
:10001000C29BD200F599227F127EEBDEFEDFFC222E
:10002300020365E709F608DFFA8046E709F208DF0D
:10003300FA803E88828C83E709F0A3DFFA8032E3FB
:1000430009F608DFFA8078E309F208DFFA8070889E
:10005300828C83E309F0A3DFFA806489828A83E0D8
:10006300A3F608DFFA805889828A83E0A3F208DFC7
:10007300FA804C80D280FA80C680D4806980F28076
:1000830033801080A680EA809A80A880DA80E2809C
:10009300CA803389828A83ECFAE493A3C8C582C8F1
:1000A300CCC583CCF0A3C8C582C8CCC583CCDFE95B
:1000B300DEE7800D89828A83E493A3F608DFF9ECF7
:1000C300FAA9F0EDFB2289828A83ECFAE0A3C8C582
:1000D30082C8CCC583CCF0A3C8C582C8CCC583CCA9
:1000E300DFEADEE880DB89828A83E493A3F208DF18
:1000F300F980CC88F0EF60010E4E60C388F0ED24E8
:1001030002B4040050B9F582EB2402B4040050AFEA
:10011300232345822390007673BB010689828A8359
:10012300E0225002E722BBFE02E32289828A83E4B3
:100133009322787FE4F6D8FD75812002017C0203C7
:100143003DE493A3F8E493A34003F68001F208DFB0
:10015300F48029E493A3F85407240CC8C333C4548C
:100163000F4420C8834004F456800146F6DFE48040
:100173000B0102040810204080900313E47E0193D6
:1001830060BCA3FF543F30E509541FFEE493A36012
:10019300010ECF54C025E060A840B8E493A3FAE46D
:1001A30093A3F8E493A3C8C582C8CAC583CAF0A3BE
:1001B300C8C582C8CAC583CADFE9DEE780BE781F27
:1001C3007C007DFE7BFF7A0379A97E007F0212000B
:1001D300F67801E2700218E2606F781F7401F2781A
:1001E3001EE2FEB4520B7BFF7A03799D1202DF807D
:1001F30052EEB44209C2AF12024DD2AF8045781E0F
:10020300E2B44609C2AF120296D2AF8036781EE23C
:10021300B441167BFF7A03799F1202DFC2AFC2A1FA
:10022300120017D2A1D2AF801A781EE2B453147B06
:10023300FF7A0379A41202DFC2AFC2A0120017D261
:10024300A0D2AFE47800F208F222E47823F208F2B5
:10025300E47821F208F27821E2FE08E2FFC3940871
:10026300EE6480948050101203897822E22401F214
:1002730018E23400F280DF7824E22401F218E23439
:1002830000F2C308E2940A18E26480948040C1E457
:10029300F59022E47823F208F27821E4F208740757
:1002A300F27821E2FE08E2FFC3EE648094804010FE
:1002B3001203897822E224FFF218E234FFF280E18C
:1002C3007824E22401F218E23400F2C308E2940A2B
:1002D30018E26480948040C1E4F590227821EBF227
:1002E30008EAF208E9F27821E2FB08E2FA08E2F907
:1002F30012011C601A7821E2FB0808E2F92401F2DA
:1003030018E2FA3400F212011CFF12000380D72214
:1003130082000000820200008A0400000000000046
:1003230000000000811E00900E0001000300020087
:10033300060004000C0008000900E4F59075A0FF16
:100343007598DA758920F5E543E78175E64675E624
:10035300B9758BFD758DFDD28ED2ACD2AF1201C1B2
:1003630080FBC0E0C0D075D00830980EC298781ECC
:10037300E599F27800E4F20804F2309904C299C2D4
:1003830000D0D0D0E032EF25E0240EF808E2F4F5F7
:10039300907F067E5DDEFEDFFC224F006164640A0F
:0803A300007375620A000000FE
:00000001FF
