:100000000200C47800E4F20874A6F275A0FFE4F5DB
:1000100090D2901200B6C290A2A1B35018C378013A
:10002000E2944C18E264809481500A08E22401F2C0
:1000300018E23400F2D290E47802F208F27800E29A
:10004000FE08E2FFC37803E29FEE6480F5F018E259
:10005000648095F0500C08E22401F218E23400F2BA
:1000600080DBA2A0B35016C3EF9401EE64809480AD
:10007000400B7801E224FFF218E234FFF2C290E470
:100080007802F208F27800E2FE08E2FFC3744D9FA6
:10009000FF74019EFEC37803E29FEE6480F5F018C2
:1000A000E2648095F0400302001808E22401F2188F
:1000B000E23400F280CF007F0F7E027DEBDDFEDEBA
:1000C000FCDFFA22787FE4F6D8FD75810702000391
:00000001FF
